:100000000C942A000C9447000C9447000C94470071
:100010000C9447000C9447000C9447000C94470044
:100020000C9447000C9447000C9447000C94470034
:100030000C9447000C94F9000C9447000C94470072
:100040000C9447000C9447000C9447000C94470014
:100050000C94470011241FBECFE5D8E0DEBFCDBF12
:1000600010E0A0E6B0E0E6E5F2E002C005900D92F7
:10007000A036B107D9F720E0A0E6B0E001C01D929C
:10008000A338B207E1F70E9449000C9429010C94AF
:1000900000000F931F93CF93DF930E949400CAE058
:1000A000D0E004E110E06C2F81E090E00E94D400E9
:1000B000202F412F6C2F82E090E00E94E400CC9F23
:1000C000202D1124CC9FC001CD9F900D900D1124A7
:1000D000492F6C2F83E090E00E94E4009FE32DE025
:1000E00083E0915020408040E1F700C000000E5FA7
:1000F0001F4F2196C431D105B1F680E090E0DF9129
:10010000CF911F910F910895F894809162008F5FB5
:100110008093620008958091620081508093620014
:10012000811101C07894089510BC85E089B986E8F2
:1001300080BD88E98AB9789408958CB95D9BFECF1B
:1001400008959CB95D9BFECF8CB95D9BFECF089551
:10015000EF92FF920F931F93CF93DF93EC01E62E64
:10016000F72E142F0E94840085EA0E949D00812FA3
:10017000886A0E949D00CE010E94A100CFEFC10FAE
:1001800011164CF40E2D1F2DF80181918F010E9444
:100190009D00C150C8F70E948B00DF91CF911F9145
:1001A0000F91FF90EF900895CF93DF931F92CDB7FB
:1001B000DEB7698341E0BE016F5F7F4F0E94A800F8
:1001C0000F90DF91CF910895CF93DF9300D01F92CE
:1001D000CDB7DEB769834A832B8343E0BE016F5FEF
:1001E0007F4F0E94A8000F900F900F90DF91CF914A
:1001F00008951F920F920FB60F9211242F938F9391
:100200009F93EF93FF9319C02CB18091610090E010
:1002100001968F719078992324F40197806E9F6FD7
:10022000019690916000891741F0E0916100F0E043
:10023000ED59FF4F2083809361005F99E5CFFF91D7
:10024000EF919F918F912F910F900FBE0F901F9064
:060250001895F894FFCFA1
:00000001FF
